{
  "_format": "hh-sol-artifact-1",
  "contractName": "SmartBank",
  "sourceName": "smart-contract/contracts/SmartBank.sol",
  "abi": [
    {
      "inputs": [],
      "stateMutability": "nonpayable",
      "type": "constructor"
    },
    {
      "inputs": [
        {
          "internalType": "address",
          "name": "target",
          "type": "address"
        }
      ],
      "name": "AddressEmptyCode",
      "type": "error"
    },
    {
      "inputs": [
        {
          "internalType": "address",
          "name": "implementation",
          "type": "address"
        }
      ],
      "name": "ERC1967InvalidImplementation",
      "type": "error"
    },
    {
      "inputs": [],
      "name": "ERC1967NonPayable",
      "type": "error"
    },
    {
      "inputs": [],
      "name": "FailedCall",
      "type": "error"
    },
    {
      "inputs": [],
      "name": "InvalidInitialization",
      "type": "error"
    },
    {
      "inputs": [],
      "name": "NotInitializing",
      "type": "error"
    },
    {
      "inputs": [
        {
          "internalType": "address",
          "name": "owner",
          "type": "address"
        }
      ],
      "name": "OwnableInvalidOwner",
      "type": "error"
    },
    {
      "inputs": [
        {
          "internalType": "address",
          "name": "account",
          "type": "address"
        }
      ],
      "name": "OwnableUnauthorizedAccount",
      "type": "error"
    },
    {
      "inputs": [],
      "name": "ReentrancyGuardReentrantCall",
      "type": "error"
    },
    {
      "inputs": [],
      "name": "UUPSUnauthorizedCallContext",
      "type": "error"
    },
    {
      "inputs": [
        {
          "internalType": "bytes32",
          "name": "slot",
          "type": "bytes32"
        }
      ],
      "name": "UUPSUnsupportedProxiableUUID",
      "type": "error"
    },
    {
      "anonymous": false,
      "inputs": [
        {
          "indexed": false,
          "internalType": "uint64",
          "name": "version",
          "type": "uint64"
        }
      ],
      "name": "Initialized",
      "type": "event"
    },
    {
      "anonymous": false,
      "inputs": [
        {
          "indexed": true,
          "internalType": "address",
          "name": "previousOwner",
          "type": "address"
        },
        {
          "indexed": true,
          "internalType": "address",
          "name": "newOwner",
          "type": "address"
        }
      ],
      "name": "OwnershipTransferred",
      "type": "event"
    },
    {
      "anonymous": false,
      "inputs": [
        {
          "indexed": true,
          "internalType": "address",
          "name": "implementation",
          "type": "address"
        }
      ],
      "name": "Upgraded",
      "type": "event"
    },
    {
      "inputs": [],
      "name": "BASE_RATE_FACTOR",
      "outputs": [
        {
          "internalType": "uint256",
          "name": "",
          "type": "uint256"
        }
      ],
      "stateMutability": "view",
      "type": "function"
    },
    {
      "inputs": [],
      "name": "INTEREST_RATE_BP",
      "outputs": [
        {
          "internalType": "uint256",
          "name": "",
          "type": "uint256"
        }
      ],
      "stateMutability": "view",
      "type": "function"
    },
    {
      "inputs": [],
      "name": "PERFORMANCE_FEE_BP",
      "outputs": [
        {
          "internalType": "uint256",
          "name": "",
          "type": "uint256"
        }
      ],
      "stateMutability": "view",
      "type": "function"
    },
    {
      "inputs": [],
      "name": "SECONDS_IN_YEAR",
      "outputs": [
        {
          "internalType": "uint256",
          "name": "",
          "type": "uint256"
        }
      ],
      "stateMutability": "view",
      "type": "function"
    },
    {
      "inputs": [],
      "name": "UPGRADE_INTERFACE_VERSION",
      "outputs": [
        {
          "internalType": "string",
          "name": "",
          "type": "string"
        }
      ],
      "stateMutability": "view",
      "type": "function"
    },
    {
      "inputs": [],
      "name": "deposit",
      "outputs": [],
      "stateMutability": "payable",
      "type": "function"
    },
    {
      "inputs": [
        {
          "internalType": "address",
          "name": "user",
          "type": "address"
        }
      ],
      "name": "getBalance",
      "outputs": [
        {
          "internalType": "uint256",
          "name": "",
          "type": "uint256"
        }
      ],
      "stateMutability": "view",
      "type": "function"
    },
    {
      "inputs": [],
      "name": "getBankStatistics",
      "outputs": [
        {
          "internalType": "uint256",
          "name": "totalLiquidity",
          "type": "uint256"
        },
        {
          "internalType": "uint256",
          "name": "bankProfit",
          "type": "uint256"
        }
      ],
      "stateMutability": "view",
      "type": "function"
    },
    {
      "inputs": [
        {
          "internalType": "address",
          "name": "user",
          "type": "address"
        }
      ],
      "name": "getHistory",
      "outputs": [
        {
          "components": [
            {
              "internalType": "string",
              "name": "txType",
              "type": "string"
            },
            {
              "internalType": "uint256",
              "name": "amount",
              "type": "uint256"
            },
            {
              "internalType": "uint256",
              "name": "timestamp",
              "type": "uint256"
            }
          ],
          "internalType": "struct SmartBank.Transaction[]",
          "name": "",
          "type": "tuple[]"
        }
      ],
      "stateMutability": "view",
      "type": "function"
    },
    {
      "inputs": [],
      "name": "initialize",
      "outputs": [],
      "stateMutability": "nonpayable",
      "type": "function"
    },
    {
      "inputs": [
        {
          "internalType": "address",
          "name": "",
          "type": "address"
        }
      ],
      "name": "lastInterestCalculationTime",
      "outputs": [
        {
          "internalType": "uint256",
          "name": "",
          "type": "uint256"
        }
      ],
      "stateMutability": "view",
      "type": "function"
    },
    {
      "inputs": [],
      "name": "owner",
      "outputs": [
        {
          "internalType": "address",
          "name": "",
          "type": "address"
        }
      ],
      "stateMutability": "view",
      "type": "function"
    },
    {
      "inputs": [],
      "name": "proxiableUUID",
      "outputs": [
        {
          "internalType": "bytes32",
          "name": "",
          "type": "bytes32"
        }
      ],
      "stateMutability": "view",
      "type": "function"
    },
    {
      "inputs": [],
      "name": "renounceOwnership",
      "outputs": [],
      "stateMutability": "nonpayable",
      "type": "function"
    },
    {
      "inputs": [],
      "name": "totalTreasuryFees",
      "outputs": [
        {
          "internalType": "uint256",
          "name": "",
          "type": "uint256"
        }
      ],
      "stateMutability": "view",
      "type": "function"
    },
    {
      "inputs": [
        {
          "internalType": "address",
          "name": "newOwner",
          "type": "address"
        }
      ],
      "name": "transferOwnership",
      "outputs": [],
      "stateMutability": "nonpayable",
      "type": "function"
    },
    {
      "inputs": [
        {
          "internalType": "address",
          "name": "newImplementation",
          "type": "address"
        },
        {
          "internalType": "bytes",
          "name": "data",
          "type": "bytes"
        }
      ],
      "name": "upgradeToAndCall",
      "outputs": [],
      "stateMutability": "payable",
      "type": "function"
    },
    {
      "inputs": [
        {
          "internalType": "uint256",
          "name": "amount",
          "type": "uint256"
        }
      ],
      "name": "withdraw",
      "outputs": [],
      "stateMutability": "nonpayable",
      "type": "function"
    },
    {
      "inputs": [],
      "name": "withdrawFees",
      "outputs": [],
      "stateMutability": "nonpayable",
      "type": "function"
    }
  ],
  "bytecode": "0x60a06040523073ffffffffffffffffffffffffffffffffffffffff1660809073ffffffffffffffffffffffffffffffffffffffff1681525034801561004357600080fd5b5061005261005760201b60201c565b6101de565b600061006761015b60201b60201c565b90508060000160089054906101000a900460ff16156100b2576040517ff92ee8a900000000000000000000000000000000000000000000000000000000815260040160405180910390fd5b67ffffffffffffffff80168160000160009054906101000a900467ffffffffffffffff1667ffffffffffffffff16146101585767ffffffffffffffff8160000160006101000a81548167ffffffffffffffff021916908367ffffffffffffffff1602179055507fc7f505b2f371ae2175ee4913f4499e1f2633a7b5936321eed1cdaeb6115181d267ffffffffffffffff60405161014f91906101c3565b60405180910390a15b50565b60008061016c61017560201b60201c565b90508091505090565b60007ff0c57e16840df040f15088dc2f81fe391c3923bec73e23a9662efc9c229c6a0060001b905090565b600067ffffffffffffffff82169050919050565b6101bd816101a0565b82525050565b60006020820190506101d860008301846101b4565b92915050565b608051612694610207600039600081816110b70152818161110c01526112c701526126946000f3fe6080604052600436106101145760003560e01c806380396811116100a0578063c92a35bc11610064578063c92a35bc14610339578063d0e30db014610376578063ea280be314610380578063f2fde38b146103ab578063f8b2cb4f146103d457610114565b806380396811146102645780638129fc1c146102a15780638da5cb5b146102b8578063ad3cb1cc146102e3578063b79c98261461030e57610114565b80634f7234cb116100e75780634f7234cb146101a057806352d1902d146101cb5780635dcc9391146101f6578063715018a614610221578063775464391461023857610114565b806325b36843146101195780632e1a7d4d14610144578063476343ee1461016d5780634f1ef28614610184575b600080fd5b34801561012557600080fd5b5061012e610411565b60405161013b919061193f565b60405180910390f35b34801561015057600080fd5b5061016b6004803603810190610166919061199a565b610417565b005b34801561017957600080fd5b50610182610639565b005b61019e60048036038101906101999190611b6b565b610707565b005b3480156101ac57600080fd5b506101b5610726565b6040516101c2919061193f565b60405180910390f35b3480156101d757600080fd5b506101e061072c565b6040516101ed9190611be0565b60405180910390f35b34801561020257600080fd5b5061020b61075f565b604051610218919061193f565b60405180910390f35b34801561022d57600080fd5b50610236610767565b005b34801561024457600080fd5b5061024d61077b565b60405161025b929190611bfb565b60405180910390f35b34801561027057600080fd5b5061028b60048036038101906102869190611c24565b61078a565b6040516102989190611df1565b60405180910390f35b3480156102ad57600080fd5b506102b66108ce565b005b3480156102c457600080fd5b506102cd610a6c565b6040516102da9190611e22565b60405180910390f35b3480156102ef57600080fd5b506102f8610aa4565b6040516103059190611e87565b60405180910390f35b34801561031a57600080fd5b50610323610add565b604051610330919061193f565b60405180910390f35b34801561034557600080fd5b50610360600480360381019061035b9190611c24565b610ae3565b60405161036d919061193f565b60405180910390f35b61037e610afb565b005b34801561038c57600080fd5b50610395610bde565b6040516103a2919061193f565b60405180910390f35b3480156103b757600080fd5b506103d260048036038101906103cd9190611c24565b610be4565b005b3480156103e057600080fd5b506103fb60048036038101906103f69190611c24565b610c6a565b604051610408919061193f565b60405180910390f35b6103e881565b61041f610cb2565b61042833610d09565b806000803373ffffffffffffffffffffffffffffffffffffffff1673ffffffffffffffffffffffffffffffffffffffff1681526020019081526020016000205410156104a9576040517f08c379a00000000000000000000000000000000000000000000000000000000081526004016104a090611ef5565b60405180910390fd5b804710156104ec576040517f08c379a00000000000000000000000000000000000000000000000000000000081526004016104e390611f87565b60405180910390fd5b806000803373ffffffffffffffffffffffffffffffffffffffff1673ffffffffffffffffffffffffffffffffffffffff168152602001908152602001600020600082825461053a9190611fd6565b92505081905550610581336040518060400160405280600881526020017f576974686472617700000000000000000000000000000000000000000000000081525083610f61565b60003373ffffffffffffffffffffffffffffffffffffffff16826040516105a79061203b565b60006040518083038185875af1925050503d80600081146105e4576040519150601f19603f3d011682016040523d82523d6000602084013e6105e9565b606091505b505090508061062d576040517f08c379a00000000000000000000000000000000000000000000000000000000081526004016106249061209c565b60405180910390fd5b50610636611015565b50565b61064161102e565b600060025490506000600281905550600061065a610a6c565b73ffffffffffffffffffffffffffffffffffffffff168260405161067d9061203b565b60006040518083038185875af1925050503d80600081146106ba576040519150601f19603f3d011682016040523d82523d6000602084013e6106bf565b606091505b5050905080610703576040517f08c379a00000000000000000000000000000000000000000000000000000000081526004016106fa90612108565b60405180910390fd5b5050565b61070f6110b5565b6107188261119b565b61072282826111a6565b5050565b61271081565b60006107366112c5565b7f360894a13ba1a3210667c828492db98dca3e2076cc3735a920a3ca505d382bbc60001b905090565b6301e1338081565b61076f61102e565b610779600061134c565b565b60008047600254915091509091565b6060600360008373ffffffffffffffffffffffffffffffffffffffff1673ffffffffffffffffffffffffffffffffffffffff168152602001908152602001600020805480602002602001604051908101604052809291908181526020016000905b828210156108c3578382906000526020600020906003020160405180606001604052908160008201805461081e90612157565b80601f016020809104026020016040519081016040528092919081815260200182805461084a90612157565b80156108975780601f1061086c57610100808354040283529160200191610897565b820191906000526020600020905b81548152906001019060200180831161087a57829003601f168201915b5050505050815260200160018201548152602001600282015481525050815260200190600101906107eb565b505050509050919050565b60006108d8611423565b905060008160000160089054906101000a900460ff1615905060008260000160009054906101000a900467ffffffffffffffff1690506000808267ffffffffffffffff161480156109265750825b9050600060018367ffffffffffffffff1614801561095b575060003073ffffffffffffffffffffffffffffffffffffffff163b145b905081158015610969575080155b156109a0576040517ff92ee8a900000000000000000000000000000000000000000000000000000000815260040160405180910390fd5b60018560000160006101000a81548167ffffffffffffffff021916908367ffffffffffffffff16021790555083156109f05760018560000160086101000a81548160ff0219169083151502179055505b6109f933611437565b610a0161144b565b610a09611455565b8315610a655760008560000160086101000a81548160ff0219169083151502179055507fc7f505b2f371ae2175ee4913f4499e1f2633a7b5936321eed1cdaeb6115181d26001604051610a5c91906121e1565b60405180910390a15b5050505050565b600080610a77611467565b90508060000160009054906101000a900473ffffffffffffffffffffffffffffffffffffffff1691505090565b6040518060400160405280600581526020017f352e302e3000000000000000000000000000000000000000000000000000000081525081565b6101f481565b60016020528060005260406000206000915090505481565b60003411610b3e576040517f08c379a0000000000000000000000000000000000000000000000000000000008152600401610b3590612248565b60405180910390fd5b610b4733610d09565b346000803373ffffffffffffffffffffffffffffffffffffffff1673ffffffffffffffffffffffffffffffffffffffff1681526020019081526020016000206000828254610b959190612268565b92505081905550610bdc336040518060400160405280600781526020017f4465706f7369740000000000000000000000000000000000000000000000000081525034610f61565b565b60025481565b610bec61102e565b600073ffffffffffffffffffffffffffffffffffffffff168173ffffffffffffffffffffffffffffffffffffffff1603610c5e5760006040517f1e4fbdf7000000000000000000000000000000000000000000000000000000008152600401610c559190611e22565b60405180910390fd5b610c678161134c565b50565b60008060008373ffffffffffffffffffffffffffffffffffffffff1673ffffffffffffffffffffffffffffffffffffffff168152602001908152602001600020549050919050565b6000610cbc61148f565b90506002816000015403610cfc576040517f3ee5aeb500000000000000000000000000000000000000000000000000000000815260040160405180910390fd5b6002816000018190555050565b60004290506000600160008473ffffffffffffffffffffffffffffffffffffffff1673ffffffffffffffffffffffffffffffffffffffff16815260200190815260200160002054905060008060008573ffffffffffffffffffffffffffffffffffffffff1673ffffffffffffffffffffffffffffffffffffffff16815260200190815260200160002054118015610da05750600081115b15610f185760008183610db39190611fd6565b905060006301e13380612710610dc9919061229c565b826101f46000808973ffffffffffffffffffffffffffffffffffffffff1673ffffffffffffffffffffffffffffffffffffffff16815260200190815260200160002054610e16919061229c565b610e20919061229c565b610e2a919061230d565b90506000811115610f155760006127106103e883610e48919061229c565b610e52919061230d565b905060008183610e629190611fd6565b9050806000808973ffffffffffffffffffffffffffffffffffffffff1673ffffffffffffffffffffffffffffffffffffffff1681526020019081526020016000206000828254610eb29190612268565b925050819055508160026000828254610ecb9190612268565b92505081905550610f12876040518060400160405280600f81526020017f496e746572657374204561726e6564000000000000000000000000000000000081525083610f61565b50505b50505b81600160008573ffffffffffffffffffffffffffffffffffffffff1673ffffffffffffffffffffffffffffffffffffffff16815260200190815260200160002081905550505050565b600360008473ffffffffffffffffffffffffffffffffffffffff1673ffffffffffffffffffffffffffffffffffffffff16815260200190815260200160002060405180606001604052808481526020018381526020014281525090806001815401808255809150506001900390600052602060002090600302016000909190919091506000820151816000019081610ff991906124e0565b5060208201518160010155604082015181600201555050505050565b600061101f61148f565b90506001816000018190555050565b6110366114b7565b73ffffffffffffffffffffffffffffffffffffffff16611054610a6c565b73ffffffffffffffffffffffffffffffffffffffff16146110b3576110776114b7565b6040517f118cdaa70000000000000000000000000000000000000000000000000000000081526004016110aa9190611e22565b60405180910390fd5b565b7f000000000000000000000000000000000000000000000000000000000000000073ffffffffffffffffffffffffffffffffffffffff163073ffffffffffffffffffffffffffffffffffffffff16148061116257507f000000000000000000000000000000000000000000000000000000000000000073ffffffffffffffffffffffffffffffffffffffff166111496114bf565b73ffffffffffffffffffffffffffffffffffffffff1614155b15611199576040517fe07c8dba00000000000000000000000000000000000000000000000000000000815260040160405180910390fd5b565b6111a361102e565b50565b8173ffffffffffffffffffffffffffffffffffffffff166352d1902d6040518163ffffffff1660e01b8152600401602060405180830381865afa92505050801561120e57506040513d601f19601f8201168201806040525081019061120b91906125de565b60015b61124f57816040517f4c9c8ce30000000000000000000000000000000000000000000000000000000081526004016112469190611e22565b60405180910390fd5b7f360894a13ba1a3210667c828492db98dca3e2076cc3735a920a3ca505d382bbc60001b81146112b657806040517faa1d49a40000000000000000000000000000000000000000000000000000000081526004016112ad9190611be0565b60405180910390fd5b6112c08383611516565b505050565b7f000000000000000000000000000000000000000000000000000000000000000073ffffffffffffffffffffffffffffffffffffffff163073ffffffffffffffffffffffffffffffffffffffff161461134a576040517fe07c8dba00000000000000000000000000000000000000000000000000000000815260040160405180910390fd5b565b6000611356611467565b905060008160000160009054906101000a900473ffffffffffffffffffffffffffffffffffffffff169050828260000160006101000a81548173ffffffffffffffffffffffffffffffffffffffff021916908373ffffffffffffffffffffffffffffffffffffffff1602179055508273ffffffffffffffffffffffffffffffffffffffff168173ffffffffffffffffffffffffffffffffffffffff167f8be0079c531659141344cd1fd0a4f28419497f9722a3daafe3b4186f6b6457e060405160405180910390a3505050565b60008061142e611589565b90508091505090565b61143f6115b4565b611448816115f4565b50565b6114536115b4565b565b61145d6115b4565b61146561167a565b565b60007f9016d09d72d40fdae2fd8ceac6b6234c7706214fd39c1cd1e609a0528c199300905090565b60007f9b779b17422d0df92223018b32b4d1fa46e071723d6817e2486d003becc55f00905090565b600033905090565b60006114ed7f360894a13ba1a3210667c828492db98dca3e2076cc3735a920a3ca505d382bbc60001b61169b565b60000160009054906101000a900473ffffffffffffffffffffffffffffffffffffffff16905090565b61151f826116a5565b8173ffffffffffffffffffffffffffffffffffffffff167fbc7cd75a20ee27fd9adebab32041f755214dbc6bffa90cc0225b39da2e5c2d3b60405160405180910390a260008151111561157c576115768282611772565b50611585565b6115846117f6565b5b5050565b60007ff0c57e16840df040f15088dc2f81fe391c3923bec73e23a9662efc9c229c6a0060001b905090565b6115bc611833565b6115f2576040517fd7e6bcf800000000000000000000000000000000000000000000000000000000815260040160405180910390fd5b565b6115fc6115b4565b600073ffffffffffffffffffffffffffffffffffffffff168173ffffffffffffffffffffffffffffffffffffffff160361166e5760006040517f1e4fbdf70000000000000000000000000000000000000000000000000000000081526004016116659190611e22565b60405180910390fd5b6116778161134c565b50565b6116826115b4565b600061168c61148f565b90506001816000018190555050565b6000819050919050565b60008173ffffffffffffffffffffffffffffffffffffffff163b0361170157806040517f4c9c8ce30000000000000000000000000000000000000000000000000000000081526004016116f89190611e22565b60405180910390fd5b8061172e7f360894a13ba1a3210667c828492db98dca3e2076cc3735a920a3ca505d382bbc60001b61169b565b60000160006101000a81548173ffffffffffffffffffffffffffffffffffffffff021916908373ffffffffffffffffffffffffffffffffffffffff16021790555050565b60606000808473ffffffffffffffffffffffffffffffffffffffff168460405161179c9190612647565b600060405180830381855af49150503d80600081146117d7576040519150601f19603f3d011682016040523d82523d6000602084013e6117dc565b606091505b50915091506117ec858383611853565b9250505092915050565b6000341115611831576040517fb398979f00000000000000000000000000000000000000000000000000000000815260040160405180910390fd5b565b600061183d611423565b60000160089054906101000a900460ff16905090565b60608261186857611863826118e2565b6118da565b60008251148015611890575060008473ffffffffffffffffffffffffffffffffffffffff163b145b156118d257836040517f9996b3150000000000000000000000000000000000000000000000000000000081526004016118c99190611e22565b60405180910390fd5b8190506118db565b5b9392505050565b6000815111156118f457805160208201fd5b6040517fd6bda27500000000000000000000000000000000000000000000000000000000815260040160405180910390fd5b6000819050919050565b61193981611926565b82525050565b60006020820190506119546000830184611930565b92915050565b6000604051905090565b600080fd5b600080fd5b61197781611926565b811461198257600080fd5b50565b6000813590506119948161196e565b92915050565b6000602082840312156119b0576119af611964565b5b60006119be84828501611985565b91505092915050565b600073ffffffffffffffffffffffffffffffffffffffff82169050919050565b60006119f2826119c7565b9050919050565b611a02816119e7565b8114611a0d57600080fd5b50565b600081359050611a1f816119f9565b92915050565b600080fd5b600080fd5b6000601f19601f8301169050919050565b7f4e487b7100000000000000000000000000000000000000000000000000000000600052604160045260246000fd5b611a7882611a2f565b810181811067ffffffffffffffff82111715611a9757611a96611a40565b5b80604052505050565b6000611aaa61195a565b9050611ab68282611a6f565b919050565b600067ffffffffffffffff821115611ad657611ad5611a40565b5b611adf82611a2f565b9050602081019050919050565b82818337600083830152505050565b6000611b0e611b0984611abb565b611aa0565b905082815260208101848484011115611b2a57611b29611a2a565b5b611b35848285611aec565b509392505050565b600082601f830112611b5257611b51611a25565b5b8135611b62848260208601611afb565b91505092915050565b60008060408385031215611b8257611b81611964565b5b6000611b9085828601611a10565b925050602083013567ffffffffffffffff811115611bb157611bb0611969565b5b611bbd85828601611b3d565b9150509250929050565b6000819050919050565b611bda81611bc7565b82525050565b6000602082019050611bf56000830184611bd1565b92915050565b6000604082019050611c106000830185611930565b611c1d6020830184611930565b9392505050565b600060208284031215611c3a57611c39611964565b5b6000611c4884828501611a10565b91505092915050565b600081519050919050565b600082825260208201905092915050565b6000819050602082019050919050565b600081519050919050565b600082825260208201905092915050565b60005b83811015611cb7578082015181840152602081019050611c9c565b60008484015250505050565b6000611cce82611c7d565b611cd88185611c88565b9350611ce8818560208601611c99565b611cf181611a2f565b840191505092915050565b611d0581611926565b82525050565b60006060830160008301518482036000860152611d288282611cc3565b9150506020830151611d3d6020860182611cfc565b506040830151611d506040860182611cfc565b508091505092915050565b6000611d678383611d0b565b905092915050565b6000602082019050919050565b6000611d8782611c51565b611d918185611c5c565b935083602082028501611da385611c6d565b8060005b85811015611ddf5784840389528151611dc08582611d5b565b9450611dcb83611d6f565b925060208a01995050600181019050611da7565b50829750879550505050505092915050565b60006020820190508181036000830152611e0b8184611d7c565b905092915050565b611e1c816119e7565b82525050565b6000602082019050611e376000830184611e13565b92915050565b600082825260208201905092915050565b6000611e5982611c7d565b611e638185611e3d565b9350611e73818560208601611c99565b611e7c81611a2f565b840191505092915050565b60006020820190508181036000830152611ea18184611e4e565b905092915050565b7f496e73756666696369656e74206163636f756e742062616c616e636500000000600082015250565b6000611edf601c83611e3d565b9150611eea82611ea9565b602082019050919050565b60006020820190508181036000830152611f0e81611ed2565b9050919050565b7f42616e6b204c6971756964697479204572726f723a20436f6e7461637420416460008201527f6d696e0000000000000000000000000000000000000000000000000000000000602082015250565b6000611f71602383611e3d565b9150611f7c82611f15565b604082019050919050565b60006020820190508181036000830152611fa081611f64565b9050919050565b7f4e487b7100000000000000000000000000000000000000000000000000000000600052601160045260246000fd5b6000611fe182611926565b9150611fec83611926565b925082820390508181111561200457612003611fa7565b5b92915050565b600081905092915050565b50565b600061202560008361200a565b915061203082612015565b600082019050919050565b600061204682612018565b9150819050919050565b7f5472616e73666572206661696c65640000000000000000000000000000000000600082015250565b6000612086600f83611e3d565b915061209182612050565b602082019050919050565b600060208201905081810360008301526120b581612079565b9050919050565b7f466565207769746864726177616c206661696c65640000000000000000000000600082015250565b60006120f2601583611e3d565b91506120fd826120bc565b602082019050919050565b60006020820190508181036000830152612121816120e5565b9050919050565b7f4e487b7100000000000000000000000000000000000000000000000000000000600052602260045260246000fd5b6000600282049050600182168061216f57607f821691505b60208210810361218257612181612128565b5b50919050565b6000819050919050565b600067ffffffffffffffff82169050919050565b6000819050919050565b60006121cb6121c66121c184612188565b6121a6565b612192565b9050919050565b6121db816121b0565b82525050565b60006020820190506121f660008301846121d2565b92915050565b7f5a65726f206465706f7369740000000000000000000000000000000000000000600082015250565b6000612232600c83611e3d565b915061223d826121fc565b602082019050919050565b6000602082019050818103600083015261226181612225565b9050919050565b600061227382611926565b915061227e83611926565b925082820190508082111561229657612295611fa7565b5b92915050565b60006122a782611926565b91506122b283611926565b92508282026122c081611926565b915082820484148315176122d7576122d6611fa7565b5b5092915050565b7f4e487b7100000000000000000000000000000000000000000000000000000000600052601260045260246000fd5b600061231882611926565b915061232383611926565b925082612333576123326122de565b5b828204905092915050565b60008190508160005260206000209050919050565b60006020601f8301049050919050565b600082821b905092915050565b6000600883026123a07fffffffffffffffffffffffffffffffffffffffffffffffffffffffffffffffff82612363565b6123aa8683612363565b95508019841693508086168417925050509392505050565b60006123dd6123d86123d384611926565b6121a6565b611926565b9050919050565b6000819050919050565b6123f7836123c2565b61240b612403826123e4565b848454612370565b825550505050565b600090565b612420612413565b61242b8184846123ee565b505050565b5b8181101561244f57612444600082612418565b600181019050612431565b5050565b601f821115612494576124658161233e565b61246e84612353565b8101602085101561247d578190505b61249161248985612353565b830182612430565b50505b505050565b600082821c905092915050565b60006124b760001984600802612499565b1980831691505092915050565b60006124d083836124a6565b9150826002028217905092915050565b6124e982611c7d565b67ffffffffffffffff81111561250257612501611a40565b5b61250c8254612157565b612517828285612453565b600060209050601f83116001811461254a5760008415612538578287015190505b61254285826124c4565b8655506125aa565b601f1984166125588661233e565b60005b828110156125805784890151825560018201915060208501945060208101905061255b565b8683101561259d5784890151612599601f8916826124a6565b8355505b6001600288020188555050505b505050505050565b6125bb81611bc7565b81146125c657600080fd5b50565b6000815190506125d8816125b2565b92915050565b6000602082840312156125f4576125f3611964565b5b6000612602848285016125c9565b91505092915050565b600081519050919050565b60006126218261260b565b61262b818561200a565b935061263b818560208601611c99565b80840191505092915050565b60006126538284612616565b91508190509291505056fea2646970667358221220399ad6719e7d60023ead1817282b9110b0566d17d1bbb85fc9f6dab5cb4c88fb64736f6c634300081c0033",
  "linkReferences": {},
  "deployedLinkReferences": {}
}